:100000000C942A000C9447000C9447000C94470071
:100010000C9447000C9447000C9447000C94470044
:100020000C9447000C9447000C9449090C94470029
:100030000C9447000C9447000C9447000C94470024
:100040000C9447000C9447000C9447000C94470014
:100050000C94470011241FBECFE5D8E0DEBFCDBF12
:1000600010E0A0E6B0E0E0EAF2E202C005900D92F6
:10007000A037B107D9F710E0A0E7B0E001C01D92AA
:10008000A238B107E1F70E94DB100C944E110C94DA
:100090000000EF92FF920F931F937B018C0120E0F1
:1000A00030E040E05FE40E94490388238CF0C801FF
:1000B000B70120E030E040E05FE40E94C1010E940F
:1000C000A9039B01AC01205030404040504806C07D
:1000D000C801B7010E94A9039B01AC01B901CA0183
:1000E0001F910F91FF90EF900895A0E0B0E0EBE733
:1000F000F0E00C941711DC012B01FA019C91923075
:1001000008F439C1EB018881823008F433C194309E
:1001100069F4843009F02FC111969C91119789815F
:10012000981709F428C1A8E6B0E025C1843009F485
:1001300021C18230A9F4923009F01DC19A01AD01AC
:1001400088E0EA010990AE01E90109929E0181501F
:10015000C1F7E201898111969C918923818308C1AD
:10016000923009F407C112962D903C901397EB0141
:100170008A819B811496AD90BD90CD90DC901797AD
:10018000EC80FD800E811F819101281B390BB90184
:1001900037FF04C066277727621B730B6032710537
:1001A0000CF061C0121613066CF537014801062EDB
:1001B00004C096948794779467940A94D2F721E0C8
:1001C00030E040E050E004C0220F331F441F551FB1
:1001D0006A95D2F721503040404050402E213F21B7
:1001E00040235123211531054105510521F021E01E
:1001F00030E040E050E079018A01E628F72808293C
:1002000019293CC0232BD1F1260E371E350146019A
:10021000062E04C096948794779467940A94D2F734
:1002200021E030E040E050E004C0220F331F441FC3
:10023000551F6A95D2F721503040404050402A2146
:100240003B214C215D21211531054105510521F04E
:1002500021E030E040E050E059016A01A628B728CB
:10026000C828D9280BC0821593052CF01C01AA249C
:10027000BB24650103C0EE24FF24870111969C91E5
:10028000D20111968C91981709F445C0992339F041
:10029000A80197012A193B094C095D0906C0A6016E
:1002A00095012E193F09400B510B57FD08C01182D3
:1002B0003382228224833583468357831DC081E0A5
:1002C00081833382228288279927DC01821B930B4A
:1002D000A40BB50B84839583A683B7830DC0220F2F
:1002E000331F441F551F24833583468357838281E0
:1002F000938101979383828324813581468157813D
:10030000DA01C9010197A109B1098F5F9F4FAF4F72
:10031000BF4328F30BC0918333822282EA0CFB1C7B
:100320000C1D1D1DE482F5820683178383E0808304
:10033000248135814681578157FF1AC0C901AA27F8
:1003400097FDA095BA2F81709070A070B0705695EF
:10035000479537952795822B932BA42BB52B848318
:100360009583A683B7838281938101969383828349
:10037000DF0101C0D201CD01CDB7DEB7E2E10C94BF
:100380003311A0E2B0E0E7ECF1E00C9423116983B3
:100390007A838B839C832D833E834F835887E9E048
:1003A000EE2EF12CEC0EFD1ECE010196B7010E943F
:1003B000D2048E010F5E1F4FCE010596B8010E9438
:1003C000D2048A8991E089278A8BC701B801AE01DE
:1003D000475E5F4F0E9475000E94FD03A096E6E015
:1003E0000C943F11A0E2B0E0E8EFF1E00C9423118F
:1003F00069837A838B839C832D833E834F835887C5
:10040000F9E0EF2EF12CEC0EFD1ECE010196B701A6
:100410000E94D2048E010F5E1F4FCE010596B801D7
:100420000E94D204C701B801AE01475E5F4F0E942F
:1004300075000E94FD03A096E6E00C943F11A0E237
:10044000B0E0E5E2F2E00C94171169837A838B83C4
:100450009C832D833E834F835887CE010196BE0136
:10046000675F7F4F0E94D204CE010596BE016F5E8A
:100470007F4F0E94D2049985923088F0898982301A
:10048000C8F0943019F4823051F404C0843029F457
:10049000923081F488E690E0C6C0923049F420E0C2
:1004A0009A858A89981321E02A87CE010996BBC0D4
:1004B000823049F420E09A858A89981321E02A8BBA
:1004C000CE014196B0C02D843E844F8458886D88FB
:1004D0007E888F88988CEE24FF248701AA24BB2471
:1004E000650140E050E060E070E0E0E0F0E0C10174
:1004F00081709070892BE9F0E60CF71C081D191D1E
:100500009A01AB012A0D3B1D4C1D5D1D80E090E062
:10051000A0E0B0E0E614F7040805190520F481E036
:1005200090E0A0E0B0E0BA01A901480F591F6A1F8E
:100530007B1FAA0CBB1CCC1CDD1C97FE08C081E0F5
:1005400090E0A0E0B0E0A82AB92ACA2ADB2A3196B6
:10055000E032F10549F0660C771C881C991C569412
:10056000479437942794C3CFFA85EA892B893C892D
:100570008B859C85280F391F2E5F3F4F17C0CA01FE
:1005800081709070892B61F016950795F794E79428
:1005900080E090E0A0E0B0E8E82AF92A0A2B1B2BC3
:1005A00076956795579547952F5F3F4F77FDE7CF36
:1005B0000CC0440F551F661F771F17FD4160EE0CDE
:1005C000FF1C001F111F21503040403090E05907A0
:1005D00090E0690790E4790760F32B8F3C8FDB0193
:1005E000CA018F779070A070B07080349105A1051A
:1005F000B10561F447FD0AC0E114F10401051105DC
:1006000029F0405C5F4F6F4F7F4F40781A8EFE1786
:1006100011F081E08A8F4D8F5E8F6F8F78A383E01A
:10062000898FCE0149960E94FD03A096E2E10C94C9
:100630003311A8E1B0E0EFE1F3E00C9423116983FA
:100640007A838B839C832D833E834F83588789E0F5
:10065000E82EF12CEC0EFD1ECE010196B7010E9492
:10066000D2048E010F5E1F4FCE010596B8010E9485
:10067000D2048985823040F08989823028F0C70110
:10068000B8010E944A0501C08FEF6896E6E00C941D
:100690003F11A8E1B0E0EFE4F3E00C94231169838B
:1006A0007A838B839C832D833E834F83588789E095
:1006B000E82EF12CEC0EFD1ECE010196B7010E9432
:1006C000D2048E010F5E1F4FCE010596B8010E9425
:1006D000D2048985823040F08989823028F0C701B0
:1006E000B8010E944A0501C08FEF6896E6E00C94BD
:1006F0003F11A8E1B0E0EFE7F3E00C942311698328
:100700007A838B839C832D833E834F83588789E034
:10071000E82EF12CEC0EFD1ECE010196B7010E94D1
:10072000D2048E010F5E1F4FCE010596B8010E94C4
:10073000D2048985823040F08989823028F0C7014F
:10074000B8010E944A0501C081E06896E6E00C9479
:100750003F11ACE0B0E0EFEAF3E00C9427116983BD
:100760007A838B839C83CE010196BE016B5F7F4FA2
:100770000E94D2048D81823061F1823050F1843048
:1007800021F48E81882351F12EC02F81388537FDC9
:1007900020C06E812F3131051CF06623F9F023C093
:1007A0008EE190E0821B930B29853A854B855C8511
:1007B00004C056954795379527958A95D2F76623B5
:1007C000B1F050954095309521953F4F4F4F5F4F79
:1007D0000EC020E030E040E050E009C02FEF3FEFD6
:1007E0004FEF5FE704C020E030E040E050E8B9019F
:1007F000CA012C96E2E00C944311DF92EF92FF9233
:100800000F931F93FC01E480F58006811781D1804E
:100810008081823048F480E090E0A0E1B0E0E82AF6
:10082000F92A0A2B1B2BA5C0843009F49FC0823003
:1008300021F4EE24FF24870105C0E114F104010531
:10084000110519F4E0E0F0E096C0628173819FEF3A
:10085000623879070CF05BC022E83FEF261B370BAC
:100860002A3131052CF020E030E040E050E02AC091
:10087000B801A701022E04C0769567955795479554
:100880000A94D2F781E090E0A0E0B0E004C0880FC5
:10089000991FAA1FBB1F2A95D2F70197A109B10979
:1008A0008E219F21A023B1230097A105B10521F03E
:1008B00081E090E0A0E0B0E09A01AB01282B392B59
:1008C0004A2B5B2BDA01C9018F779070A070B07052
:1008D00080349105A105B10539F427FF09C0205CDA
:1008E0003F4F4F4F5F4F04C0215C3F4F4F4F5F4F13
:1008F000E0E0F0E02030A0E03A07A0E04A07A0E402
:100900005A0710F0E1E0F0E079018A0127C0603871
:10091000710564F5FB01E158FF4FD801C7018F77DE
:100920009070A070B07080349105A105B10539F4C4
:10093000E7FE0DC080E490E0A0E0B0E004C08FE3EB
:1009400090E0A0E0B0E0E80EF91E0A1F1B1F17FFA1
:1009500005C016950795F794E794319687E01695AC
:100960000795F794E7948A95D1F705C0EE24FF2404
:100970008701EFEFF0E06E2F679566276795902F60
:100980009F77D794DD24D7948E2F8695492F462BB9
:10099000582F5D29B701CA011F910F91FF90EF9069
:1009A000DF900895FC01DB01408151812281622F9B
:1009B0006F7770E0221F2227221F9381892F880FD3
:1009C000822B282F30E0991F9927991F11969C930D
:1009D000119721153105A9F54115510561057105DD
:1009E00011F482E037C082E89FEF13969C938E93B8
:1009F00012979A01AB0167E0220F331F441F551F66
:100A00006A95D1F783E08C930DC0220F331F441FEA
:100A1000551F12968D919C911397019713969C9355
:100A20008E931297203080E0380780E0480780E4FA
:100A3000580758F314962D933D934D935C93179755
:100A400008952F3F310579F4411551056105710570
:100A500019F484E08C93089564FF03C081E08C93C3
:100A600012C01C9210C02F57304013963C932E9307
:100A7000129783E08C9387E0440F551F661F771F02
:100A80008A95D1F7706414964D935D936D937C9322
:100A9000179708951F93DC01FB019C91923008F495
:100AA00047C08081823008F443C0943051F41196DD
:100AB0001C91843099F58181682F70E0611B710968
:100AC0003FC0843021F0923031F48230B9F181811D
:100AD000882389F12DC011961C9111978230F1F075
:100AE00081811817D9F412962D913C911397828128
:100AF00093818217930794F028173907BCF0149656
:100B00008D919D910D90BC91A02D248135814681C0
:100B10005781281739074A075B0718F4112341F05A
:100B20000AC082179307A407B50740F4112319F0F0
:100B300061E070E005C06FEF7FEF02C060E070E041
:100B4000CB011F910895DF93CF93CDB7DEB78BE331
:100B500090E060E040E00E945A06A7E2B0E0E7E2E1
:100B6000F0E080818F7B8C93A7E2B0E0E7E2F0E0D9
:100B700080818F778C93A7E2B0E0E7E2F0E080819C
:100B80008F7D8C93A7E2B0E0E7E2F0E080818E7F7A
:100B90008C93A7E2B0E0E7E2F0E080818D7F8C9358
:100BA000A7E2B0E0E7E2F0E080818B7F8C93A7E2E0
:100BB000B0E0E7E2F0E08081877F8C93A7E2B0E0CD
:100BC000E7E2F0E080818F7E8C93A6E2B0E0E6E27F
:100BD000F0E080818E7F8C93A6E2B0E0E6E2F0E068
:100BE000808182608C93A6E2B0E0E6E2F0E0808152
:100BF0008B7F8C93A6E2B0E0E6E2F0E08081806833
:100C00008C93A6E2B0E0E6E2F0E08081877F8C93EF
:100C1000CF91DF910895DF93CF9300D000D00F9252
:100C2000CDB7DEB71D821C821B821A821982A6E212
:100C3000B0E0E6E2F0E0808180648C93E6E2F0E0F0
:100C40008081882F90E0807190709595879595951B
:100C500087959595879595958795009779F3A6E261
:100C6000B0E0E6E2F0E0808180618C93E4E2F0E0C5
:100C700080818D83E5E2F0E08081882F90E09C8385
:100C80008B838D81882F90E09A8389838B819C81CF
:100C9000382F222789819A81822B932B9A838983EB
:100CA00089819A810F900F900F900F900F90CF91A4
:100CB000DF910895DF93CF9300D000D0CDB7DEB79A
:100CC0009A8389836B834C838C818130C1F48981C1
:100CD0009A81DC01119789819A81FC013197808189
:100CE000482F8B81282F30E081E090E0022E02C057
:100CF000880F991F0A94E2F7842B8C931BC08C8178
:100D00008823C1F489819A81DC01119789819A81B4
:100D1000FC0131978081482F8B81282F30E081E0C2
:100D200090E0022E02C0880F991F0A94E2F7809586
:100D300084238C930F900F900F900F90CF91DF91A1
:100D40000895DF93CF9300D000D0CDB7DEB79A835C
:100D500089836B834C838C818130A1F4E981FA8192
:100D60008081482F8B81282F30E081E090E0022E97
:100D700002C0880F991F0A94E2F7842BE981FA8157
:100D8000808317C08C818823A1F4E981FA81808156
:100D9000482F8B81282F30E081E090E0022E02C0A6
:100DA000880F991F0A94E2F780958423E981FA81DC
:100DB00080830F900F900F900F90CF91DF91089547
:100DC000DF93CF9300D00F92CDB7DEB79A8389839C
:100DD0006B8389819A81FC0132978081482F50E092
:100DE0008B81282F30E081E090E002C0880F991FAE
:100DF0002A95E2F79A01282339238B81882F90E0E6
:100E0000A90102C0559547958A95E2F7CA010F904E
:100E10000F900F90CF91DF910895DF93CF9300D083
:100E20000F92CDB7DEB79A8389836B838B81813034
:100E300039F489819A81FC0131978FEF808308C052
:100E40008B81882329F489819A81FC013197108252
:100E50000F900F900F90CF91DF910895DF93CF9374
:100E600000D00F92CDB7DEB79A8389836B83E98177
:100E7000FA818B8180830F900F900F90CF91DF913B
:100E80000895DF93CF9300D0CDB7DEB79A838983DF
:100E900089819A81FC01329780810F900F90CF91C8
:100EA000DF910895DF93CF9300D00F92CDB7DEB7D7
:100EB0009A8389836B83E981FA818081482F8B81B2
:100EC000282F30E081E090E0022E02C0880F991FA9
:100ED0000A94E2F7842BE981FA8180830F900F90C6
:100EE0000F90CF91DF910895DF93CF9300D0CDB7CE
:100EF000DEB79A838983E981FA818FEF80830F902F
:100F00000F90CF91DF910895DF93CF930F92CDB7DC
:100F1000DEB78983A5E5B0E0E5E5F0E0808181609A
:100F20008C93A5E5B0E0E5E5F0E0808182608C93EC
:100F3000ABE5B0E0EBE5F0E08081482F8981282F18
:100F400030E081E090E0022E02C0880F991F0A94E1
:100F5000E2F7842B8C93AFE5B0E0EFE5F0E0808121
:100F600080688C930F90CF91DF910895DF93CF939A
:100F700000D0CDB7DEB79A838983ECE3F0E08081BF
:100F8000882F90E0827090700097B9F7EEE3F0E060
:100F900089819A8191838083ACE3B0E0ECE3F0E057
:100FA000808181608C93EDE3F0E080810F900F9061
:100FB000CF91DF910895DF93CF9300D00F92CDB7FB
:100FC000DEB79A8389836B83ECE3F0E08081882F1E
:100FD00090E0827090700097B9F7EEE3F0E08981BD
:100FE0009A8191838083EDE3F0E08B818083ACE391
:100FF000B0E0ECE3F0E0808184608C93ACE3B0E09F
:10100000ECE3F0E0808182608C930F900F900F9062
:10101000CF91DF910895DF93CF93CDB7DEB7A3E5EE
:10102000B0E0E3E5F0E080818F7B8C93A3E5B0E056
:10103000E3E5F0E0808188608C93ECE5F0E08BE004
:101040008083AFE5B0E0EFE5F0E0808180688C93CD
:10105000A9E5B0E0E9E5F0E0808182608C93A3E54A
:10106000B0E0E3E5F0E0808181608C93A3E5B0E03F
:10107000E3E5F0E080818D7F8C93A3E5B0E0E3E5CC
:10108000F0E0808184608C93CF91DF910895DF93AD
:10109000CF93CDB7DEB78BE390E060E041E00E94F4
:1010A0005A06ABE3B0E0EBE3F0E0908181E0892702
:1010B0008C93CF91DF910895DF93CF93CDB7DEB7B7
:1010C0008BE390E061E041E00E945A06ABE3B0E0C0
:1010D000EBE3F0E0908182E089278C93CF91DF9160
:1010E0000895DF93CF93CDB7DEB78BE390E062E056
:1010F00041E00E945A06ABE3B0E0EBE3F0E0908100
:1011000084E089278C93CF91DF910895DF93CF936B
:10111000CDB7DEB788E390E060E041E00E945A0678
:1011200088E390E061E041E00E945A0688E390E0A5
:1011300062E041E00E945A0688E390E063E041E00B
:101140000E945A0688E390E060E040E00E94A10619
:1011500088E390E061E040E00E94A10688E390E02F
:1011600062E040E00E94A10688E390E063E040E096
:101170000E94A1062091700088E390E0622F41E078
:101180000E94A106809170008F5F80937000809113
:101190007000837080937000CF91DF910895DF938A
:1011A000CF93CDB7DEB78CE10E949F0D8091710087
:1011B0008F5F80937100809171008F3029F41092BD
:1011C000710082E00E949F0DCF91DF910895DF931F
:1011D000CF930F92CDB7DEB7198227C0409172002E
:1011E0008981282F30E0C901880F991F820F931F32
:1011F000FC01ED58FF4F9081842F692F0E940B1145
:10120000892F882379F48981282F30E0C901880F3C
:10121000991F820F931FFC01EC58FF4F0190F08142
:10122000E02D099589818F5F898389818530B0F2AE
:101230000F90CF91DF910895DF93CF9300D000D02E
:10124000CDB7DEB789836A835C834B838981282F7E
:1012500030E0C901880F991F820F931FFC01ED58E0
:10126000FF4F8A8180838981282F30E0C901880F50
:10127000991F820F931FFC01EC58FF4F8B819C81BB
:10128000918380830F900F900F900F90CF91DF91FB
:1012900008951F920F920FB60F9211242F933F9330
:1012A0004F935F936F937F938F939F93AF93BF936E
:1012B000EF93FF93DF93CF93CDB7DEB780917200AA
:1012C0008F5F809372000E94E708CF91DF91FF91BA
:1012D000EF91BF91AF919F918F917F916F915F91AE
:1012E0004F913F912F910F900FBE0F901F90189527
:1012F000DF93CF93CDB7DEB7E0E2F0E082E080830A
:10130000E6E5F0E084E08083E1E2F0E01082E2E2F2
:10131000F0E082E08083CF91DF910895DF93CF9357
:10132000CDB7DEB7E6E5F0E084EA8083E6E5F0E0FD
:1013300080818823DCF7CF91DF910895DF93CF93ED
:10134000CDB7DEB7E6E5F0E084E98083CF91DF91A9
:101350000895DF93CF930F92CDB7DEB78983E3E291
:10136000F0E089818083E6E5F0E084E88083E6E5CB
:10137000F0E080818823DCF70F90CF91DF91089512
:10138000DF93CF93CDB7DEB7E6E5F0E084EC808362
:10139000E6E5F0E080818823DCF7E3E2F0E080819D
:1013A000CF91DF910895DF93CF93CDB7DEB7E6E518
:1013B000F0E084E88083E6E5F0E080818823DCF7D4
:1013C000E3E2F0E08081CF91DF910895DF93CF9346
:1013D0000F92CDB7DEB7E1E2F0E08081887F8983AC
:1013E00089810F90CF91DF910895DF93CF9300D043
:1013F00000D0CDB7DEB7A2E3B0E0E2E3F0E0808159
:101400008F608C93198245C0E1E3F0E02081E1E335
:10141000F0E01082A1E3B0E0E1E3F0E08081482F4A
:101420008981282F30E080E890E0022E02C0959557
:1014300087950A94E2F7842B8C931A8224C0E0E308
:10144000F0E08081482F50E08A81282F30E088E04A
:1014500090E0022E02C0959587950A94E2F78423C6
:101460009523009769F48A81882F90E0880F991F4F
:10147000880F991F982F8981292F280F2B830FC040
:101480008A818F5F8A838A818430C8F289818F5FE5
:1014900089838981843008F4B7CF8FEF8B838B8168
:1014A0000F900F900F900F90CF91DF9108950F93B1
:1014B0001F93DF93CF93CDB7DEB7C654D0400FB69E
:1014C000F894DEBF0FBECDBF85E390E061E00E94DF
:1014D0000D0782E390E060E041E00E945A0682E35B
:1014E00090E061E041E00E945A0682E390E062E011
:1014F00041E00E945A06FE01ED5BFF4F80E090E064
:10150000A8E4B2E480839183A283B3838E01015C5B
:101510001F4FFE01ED5BFF4F6081718182819381DE
:1015200020E030E84BE355E40E941F02DC01CB01D0
:10153000F80180839183A283B383FE01FF966081CB
:1015400071818281938120E030E040E85FE30E9476
:10155000790388232CF481E090E09EAF8DAF46C0E4
:10156000FE01FF96608171818281938120E03FEFCF
:101570004FE757E40E941903181664F5FE01ED5B6E
:10158000FF4F608171818281938120E030E040E2F1
:1015900051E40E941F02DC01CB01BC01CD010E947D
:1015A0004900DC01CB019EAF8DAF0FC08CE291E012
:1015B0009CAF8BAF8BAD9CAD0197F1F79CAF8BAF20
:1015C0008DAD9EAD01979EAF8DAF8DAD9EAD009759
:1015D00069F716C0FE01FF96608171818281938157
:1015E0000E944900DC01CB019EAF8DAF8DAD9EAD59
:1015F0009AAF89AF89AD9AAD0197F1F79AAF89AFEC
:101600008CE00E949F0D80E090E0A0E0B0E48DAB04
:101610009EABAFABB8AF6DA97EA98FA998AD20E006
:1016200030E84BE355E40E941F02DC01CB0189AB9B
:101630009AABABABBCAB69A97AA98BA99CA920E0FA
:1016400030E040E85FE30E94790388232CF481E0D6
:1016500090E098AB8FA73FC069A97AA98BA99CA9F4
:1016600020E03FEF4FE757E40E94190318164CF5AE
:101670006DA97EA98FA998AD20E030E040E251E449
:101680000E941F02DC01CB01BC01CD010E94490078
:10169000DC01CB0198AB8FA70FC08CE291E09EA735
:1016A0008DA78DA59EA50197F1F79EA78DA78FA564
:1016B00098A9019798AB8FA78FA598A9009769F76C
:1016C00014C069A97AA98BA99CA90E944900DC01D0
:1016D000CB0198AB8FA78FA598A99CA78BA78BA5AB
:1016E0009CA50197F1F79CA78BA788E30E949F0D0B
:1016F00080E090E0A0E0B0E48FA398A7A9A7BAA7E4
:101700006FA178A589A59AA520E030E84BE355E4C0
:101710000E941F02DC01CB018BA39CA3ADA3BEA33F
:101720006BA17CA18DA19EA120E030E040E85FE3A9
:101730000E94790388232CF481E090E09AA389A386
:101740003FC06BA17CA18DA19EA120E03FEF4FE7A0
:1017500057E40E94190318164CF56FA178A589A5C6
:101760009AA520E030E040E251E40E941F02DC0133
:10177000CB01BC01CD010E944900DC01CB019AA341
:1017800089A30FC08CE291E098A38F8F8F8D98A1D1
:101790000197F1F798A38F8F89A19AA101979AA336
:1017A00089A389A19AA1009769F714C06BA17CA1B4
:1017B0008DA19EA10E944900DC01CB019AA389A3BF
:1017C00089A19AA19E8F8D8F8D8D9E8D0197F1F7A6
:1017D0009E8F8D8F81E00E949F0D80E090E0A0E0C1
:1017E000B0E4898F9A8FAB8FBC8F698D7A8D8B8D8A
:1017F0009C8D20E030E84BE355E40E941F02DC01A1
:10180000CB018D8B9E8BAF8BB88F6D897E898F8935
:10181000988D20E030E040E85FE30E947903882360
:101820002CF481E090E09C8B8B8B3FC06D897E898E
:101830008F89988D20E03FEF4FE757E40E9419030E
:1018400018164CF5698D7A8D8B8D9C8D20E030E0DB
:1018500040E251E40E941F02DC01CB01BC01CD013A
:101860000E944900DC01CB019C8B8B8B0FC08CE26A
:1018700091E09A8B898B89899A890197F1F79A8BE4
:10188000898B8B899C8901979C8B8B8B8B899C89FD
:10189000009769F714C06D897E898F89988D0E94A1
:1018A0004900DC01CB019C8B8B8B8B899C89988BAD
:1018B0008F878F8598890197F1F7988B8F8786E0BE
:1018C0000E949F0D80E090E0A0E0B0E48B879C87B1
:1018D000AD87BE876B857C858D859E8520E030E851
:1018E0004BE355E40E941F02DC01CB018F839887F4
:1018F000A987BA876F81788589859A8520E030E04D
:1019000040E85FE30E94790388232CF481E090E0B3
:101910009E838D833FC06F81788589859A8520E07D
:101920003FEF4FE757E40E94190318164CF56B85FB
:101930007C858D859E8520E030E040E251E40E9468
:101940001F02DC01CB01BC01CD010E944900DC017A
:10195000CB019E838D830FC08CE291E09C838B83AF
:101960008B819C810197F1F79C838B838D819E8174
:1019700001979E838D838D819E81009769F714C0A6
:101980006F81788589859A850E944900DC01CB01A9
:101990009E838D838D819E819A83898389819A819B
:1019A0000197F1F79A838983CA5BDF4F0FB6F894EA
:1019B000DEBF0FBECDBFCF91DF911F910F91089574
:1019C000DF93CF93CDB7DEB72F970FB6F894DEBF76
:1019D0000FBECDBF8F8782E390E060E041E00E94C0
:1019E000A10682E390E061E040E00E94A10685E369
:1019F00090E06F850E942E0782E390E062E041E074
:101A00000E94A10680E090E0A0E0B0E48B879C8774
:101A1000AD87BE876B857C858D859E8520E030E80F
:101A20004BE355E40E941F02DC01CB018F839887B2
:101A3000A987BA876F81788589859A8520E030E00B
:101A400040E85FE30E94790388232CF481E090E072
:101A50009E838D833FC06F81788589859A8520E03C
:101A60003FEF4FE757E40E94190318164CF56B85BA
:101A70007C858D859E8520E030E040E251E40E9427
:101A80001F02DC01CB01BC01CD010E944900DC0139
:101A9000CB019E838D830FC08CE291E09C838B836E
:101AA0008B819C810197F1F79C838B838D819E8133
:101AB00001979E838D838D819E81009769F714C065
:101AC0006F81788589859A850E944900DC01CB0168
:101AD0009E838D838D819E819A83898389819A815A
:101AE0000197F1F79A83898382E390E062E040E016
:101AF0000E94A1062F960FB6F894DEBF0FBECDBF91
:101B0000CF91DF910895DF93CF9300D0CDB7DEB7AB
:101B10009A8389830AC0E981FA8180810E94E00C5E
:101B200089819A8101969A838983E981FA818081EA
:101B3000882389F70F900F90CF91DF910895DF935D
:101B4000CF93CDB7DEB72F970FB6F894DEBF0FBE99
:101B5000CDBF8F8782E390E060E040E00E94A10665
:101B600082E390E061E040E00E94A10685E390E01E
:101B70006F850E942E0782E390E062E041E00E94C0
:101B8000A10680E090E0A0E0B0E48B879C87AD8761
:101B9000BE876B857C858D859E8520E030E84BE394
:101BA00055E40E941F02DC01CB018F839887A9872F
:101BB000BA876F81788589859A8520E030E040E892
:101BC0005FE30E94790388232CF481E090E09E83F8
:101BD0008D833FC06F81788589859A8520E03FEFAE
:101BE0004FE757E40E94190318164CF56B857C8566
:101BF0008D859E8520E030E040E251E40E941F0286
:101C0000DC01CB01BC01CD010E944900DC01CB010C
:101C10009E838D830FC08CE291E09C838B838B81AC
:101C20009C810197F1F79C838B838D819E81019725
:101C30009E838D838D819E81009769F714C06F818B
:101C4000788589859A850E944900DC01CB019E83B5
:101C50008D838D819E819A83898389819A81019761
:101C6000F1F79A83898382E390E062E040E00E948A
:101C7000A1062F960FB6F894DEBF0FBECDBFCF9151
:101C8000DF910895DF93CF9300D000D0CDB7DEB7BA
:101C900089836A838A818823E1F08A818131C8F44B
:101CA0008981282F30E03C832B838B819C8181307C
:101CB000910531F02B813C812230310531F009C092
:101CC0008A8181580E949F0D04C08A8181540E949C
:101CD0009F0D0F900F900F900F90CF91DF9108956F
:101CE000DF93CF93CDB7DEB7A3E5B0E0E3E5F0E057
:101CF000808189668C93A7E3B0E0E7E3F0E0808120
:101D000088608C93CF91DF910895DF93CF93CDB707
:101D1000DEB7A7E3B0E0E7E3F0E08081806B8C936F
:101D2000ADE2B0E0EDE2F0E0808180658C93CF9190
:101D3000DF910895DF93CF93CDB7DEB7A7E3B0E08F
:101D4000E7E3F0E0808180648C93ADE2B0E0EDE207
:101D5000F0E0808180648C93CF91DF910895DF93D0
:101D6000CF930F92CDB7DEB78983EFE2F0E08981A0
:101D70008083EEE2F0E080818823DCF70F90CF9142
:101D8000DF910895DF93CF93CDB7DEB7EEE2F0E0B9
:101D900080818823DCF7EFE2F0E08081CF91DF9152
:101DA0000895DF93CF9300D0CDB7DEB79A838983B0
:101DB0000AC0E981FA8180810E94AF0E89819A81EF
:101DC00001969A838983E981FA818081882389F742
:101DD0000F900F90CF91DF9108950F931F93DF9392
:101DE000CF9300D00F92CDB7DEB79B838A83198241
:101DF0008981282F30E08A819B818C01020F131F7B
:101E00000E94C20EF80180830FC089818F5F898391
:101E10008981282F30E08A819B818C01020F131F5A
:101E20000E94C20EF80180838981282F30E08A81C8
:101E30009B81FC01E20FF31F8081833231F789819E
:101E4000282F30E08A819B81FC01E20FF31F108272
:101E50000F900F900F90CF91DF911F910F910895E8
:101E6000DF93CF930F92CDB7DEB78983898181301D
:101E700091F5A3E5B0E0E3E5F0E080818F7B8C9302
:101E8000A3E5B0E0E3E5F0E08081877F8C93A3E5F4
:101E9000B0E0E3E5F0E0808181608C93A3E5B0E001
:101EA000E3E5F0E080818D7F8C93A3E5B0E0E3E58E
:101EB000F0E0808184608C93A9E5B0E0E9E5F0E092
:101EC000808181608C93AFE5B0E0EFE5F0E0808148
:101ED00080688C9343C08981823009F03FC0A3E5BC
:101EE000B0E0E3E5F0E080818F7B8C93A3E5B0E088
:101EF000E3E5F0E0808188608C93A3E5B0E0E3E562
:101F0000F0E0808180618C93A3E5B0E0E3E5F0E050
:101F100080818F7D8C93A3E5B0E0E3E5F0E08081E4
:101F200081608C93A3E5B0E0E3E5F0E080818D7FF4
:101F30008C93A3E5B0E0E3E5F0E0808184608C93CE
:101F4000A9E5B0E0E9E5F0E0808182608C93AFE53F
:101F5000B0E0EFE5F0E0808180688C930F90CF9146
:101F6000DF910895DF93CF930F92CDB7DEB78983CA
:101F7000ECE5F0E0898180830F90CF91DF910895A7
:101F8000DF93CF930F92CDB7DEB7898389818130FC
:101F900091F5A3E5B0E0E3E5F0E0808180648C9307
:101FA000A3E5B0E0E3E5F0E0808188608C93A3E5F1
:101FB000B0E0E3E5F0E080818F7E8C93A3E5B0E0B4
:101FC000E3E5F0E0808180628C93A3E5B0E0E3E597
:101FD000F0E0808181608C93A3E5B0E0E3E5F0E080
:101FE00080818D7F8C93A3E5B0E0E3E5F0E0808114
:101FF00084608C9334C08981823089F5A3E5B0E098
:10200000E3E5F0E0808180648C93A3E5B0E0E3E554
:10201000F0E08081877F8C93A3E5B0E0E3E5F0E01A
:1020200080818F7E8C93A3E5B0E0E3E5F0E08081D2
:1020300080628C93A3E5B0E0E3E5F0E0808181600D
:102040008C93A3E5B0E0E3E5F0E080818D7F8C9395
:10205000A3E5B0E0E3E5F0E0808184608C930F902D
:10206000CF91DF910895DF93CF93CDB7DEB7ABE289
:10207000B0E0EBE2F0E0808182608C93AAE2B0E015
:10208000EAE2F0E0808188618C93A0E4B0E0E0E4D3
:10209000F0E0808186688C93E0E4F0E01082E9E271
:1020A000F0E08CE08083CF91DF910895DF93CF93B0
:1020B0000F92CDB7DEB78983EBE2F0E08081882F05
:1020C00090E0807290700097B9F3ECE2F0E08981C3
:1020D00080830F90CF91DF910895DF93CF93CDB799
:1020E000DEB7EBE2F0E080818823DCF7ECE2F0E0A1
:1020F0008081CF91DF910895DF93CF9300D0CDB74A
:10210000DEB79A8389830AC0E981FA8180810E94BF
:10211000561089819A8101969A838983E981FA818F
:102120008081882389F70F900F90CF91DF910895D8
:102130000F931F93DF93CF9300D00F92CDB7DEB7ED
:102140009B838A8319828981282F30E08A819B8131
:102150008C01020F131F0E946D10F80180830FC0C5
:1021600089818F5F89838981282F30E08A819B81D3
:102170008C01020F131F0E946D10F801808389816A
:10218000282F30E08A819B81FC01E20FF31F8081C0
:10219000833231F78981282F30E08A819B81FC01CD
:1021A000E20FF31F10820F900F900F90CF91DF91ED
:1021B0001F910F910895DF93CF93CDB7DEB70E94A3
:1021C0000B080E94570A80E690E00E94830D27E4E6
:1021D00038E080E065E0A9010E941C092CE538E0A8
:1021E00081E06AE0A9010E941C0921E738E082E051
:1021F00064E1A9010E941C0926E838E083E065E05B
:10220000A9010E941C092FEC38E084E064E6A901D2
:102210000E941C09FFCF991B79E004C0991F9617F3
:1022200008F0961B881F7A95C9F7809508952F921C
:102230003F924F925F926F927F928F929F92AF9256
:10224000BF92CF92DF92EF92FF920F931F93CF93A3
:10225000DF93CDB7DEB7CA1BDB0B0FB6F894DEBF3A
:102260000FBECDBF09942A88398848885F846E8460
:102270007D848C849B84AA84B984C884DF80EE80AA
:10228000FD800C811B81AA81B981CE0FD11D0FB6B3
:10229000F894DEBF0FBECDBFED010895F894FFCFD7
:1022A0004D4F48414D454400000000000000000033
:00000001FF
